{
  "_format": "hh-sol-artifact-1",
  "contractName": "Verification",
  "sourceName": "contracts/Lock.sol",
  "abi": [
    {
      "inputs": [],
      "stateMutability": "nonpayable",
      "type": "constructor"
    },
    {
      "anonymous": false,
      "inputs": [
        {
          "indexed": true,
          "internalType": "address",
          "name": "exporter",
          "type": "address"
        },
        {
          "indexed": true,
          "internalType": "bytes32",
          "name": "hash",
          "type": "bytes32"
        },
        {
          "indexed": false,
          "internalType": "string",
          "name": "rollno",
          "type": "string"
        },
        {
          "indexed": false,
          "internalType": "uint256",
          "name": "minetime",
          "type": "uint256"
        },
        {
          "indexed": false,
          "internalType": "string",
          "name": "ipfs_hash",
          "type": "string"
        },
        {
          "indexed": false,
          "internalType": "string",
          "name": "name",
          "type": "string"
        },
        {
          "indexed": false,
          "internalType": "string",
          "name": "description",
          "type": "string"
        },
        {
          "indexed": false,
          "internalType": "string",
          "name": "email",
          "type": "string"
        }
      ],
      "name": "AddHash",
      "type": "event"
    },
    {
      "anonymous": false,
      "inputs": [
        {
          "indexed": true,
          "internalType": "address",
          "name": "exporterAddress",
          "type": "address"
        },
        {
          "indexed": false,
          "internalType": "string",
          "name": "info",
          "type": "string"
        },
        {
          "indexed": false,
          "internalType": "uint256",
          "name": "minetime",
          "type": "uint256"
        },
        {
          "indexed": false,
          "internalType": "address",
          "name": "registerBy",
          "type": "address"
        }
      ],
      "name": "ExporterAdded",
      "type": "event"
    },
    {
      "anonymous": false,
      "inputs": [
        {
          "indexed": true,
          "internalType": "address",
          "name": "exporterAddress",
          "type": "address"
        },
        {
          "indexed": false,
          "internalType": "uint256",
          "name": "minetime",
          "type": "uint256"
        },
        {
          "indexed": false,
          "internalType": "string",
          "name": "info",
          "type": "string"
        }
      ],
      "name": "ExporterDeleted",
      "type": "event"
    },
    {
      "anonymous": false,
      "inputs": [
        {
          "indexed": true,
          "internalType": "bytes32",
          "name": "hash",
          "type": "bytes32"
        },
        {
          "indexed": false,
          "internalType": "uint256",
          "name": "minetime",
          "type": "uint256"
        },
        {
          "indexed": true,
          "internalType": "address",
          "name": "deletedBy",
          "type": "address"
        }
      ],
      "name": "HashDeleted",
      "type": "event"
    },
    {
      "inputs": [
        {
          "internalType": "address",
          "name": "",
          "type": "address"
        }
      ],
      "name": "Exporters",
      "outputs": [
        {
          "internalType": "uint256",
          "name": "blockNumber",
          "type": "uint256"
        },
        {
          "internalType": "uint256",
          "name": "minetime",
          "type": "uint256"
        },
        {
          "internalType": "string",
          "name": "info",
          "type": "string"
        }
      ],
      "stateMutability": "view",
      "type": "function"
    },
    {
      "inputs": [
        {
          "internalType": "bytes32",
          "name": "hash",
          "type": "bytes32"
        },
        {
          "components": [
            {
              "internalType": "uint256",
              "name": "blockNumber",
              "type": "uint256"
            },
            {
              "internalType": "uint256",
              "name": "minetime",
              "type": "uint256"
            },
            {
              "internalType": "string",
              "name": "info",
              "type": "string"
            },
            {
              "internalType": "string",
              "name": "ipfs_hash",
              "type": "string"
            },
            {
              "internalType": "string",
              "name": "rollno",
              "type": "string"
            },
            {
              "internalType": "string",
              "name": "name",
              "type": "string"
            },
            {
              "internalType": "string",
              "name": "description",
              "type": "string"
            },
            {
              "internalType": "string",
              "name": "email",
              "type": "string"
            }
          ],
          "internalType": "struct Verification.Record",
          "name": "details",
          "type": "tuple"
        }
      ],
      "name": "addDocHash",
      "outputs": [],
      "stateMutability": "nonpayable",
      "type": "function"
    },
    {
      "inputs": [
        {
          "internalType": "address",
          "name": "_add",
          "type": "address"
        },
        {
          "internalType": "string",
          "name": "_info",
          "type": "string"
        }
      ],
      "name": "add_Exporter",
      "outputs": [],
      "stateMutability": "nonpayable",
      "type": "function"
    },
    {
      "inputs": [
        {
          "internalType": "address",
          "name": "_newOwner",
          "type": "address"
        }
      ],
      "name": "changeOwner",
      "outputs": [],
      "stateMutability": "nonpayable",
      "type": "function"
    },
    {
      "inputs": [],
      "name": "count_Exporters",
      "outputs": [
        {
          "internalType": "uint16",
          "name": "",
          "type": "uint16"
        }
      ],
      "stateMutability": "view",
      "type": "function"
    },
    {
      "inputs": [],
      "name": "count_hashes",
      "outputs": [
        {
          "internalType": "uint16",
          "name": "",
          "type": "uint16"
        }
      ],
      "stateMutability": "view",
      "type": "function"
    },
    {
      "inputs": [
        {
          "internalType": "bytes32",
          "name": "_hash",
          "type": "bytes32"
        }
      ],
      "name": "deleteHash",
      "outputs": [],
      "stateMutability": "nonpayable",
      "type": "function"
    },
    {
      "inputs": [
        {
          "internalType": "address",
          "name": "_add",
          "type": "address"
        }
      ],
      "name": "delete_Exporter",
      "outputs": [],
      "stateMutability": "nonpayable",
      "type": "function"
    },
    {
      "inputs": [
        {
          "internalType": "string",
          "name": "_email",
          "type": "string"
        },
        {
          "internalType": "string",
          "name": "_rollno",
          "type": "string"
        }
      ],
      "name": "findDocByEmailAndRollno",
      "outputs": [
        {
          "internalType": "bytes32",
          "name": "hash",
          "type": "bytes32"
        },
        {
          "components": [
            {
              "internalType": "uint256",
              "name": "blockNumber",
              "type": "uint256"
            },
            {
              "internalType": "uint256",
              "name": "minetime",
              "type": "uint256"
            },
            {
              "internalType": "string",
              "name": "info",
              "type": "string"
            },
            {
              "internalType": "string",
              "name": "ipfs_hash",
              "type": "string"
            },
            {
              "internalType": "string",
              "name": "rollno",
              "type": "string"
            },
            {
              "internalType": "string",
              "name": "name",
              "type": "string"
            },
            {
              "internalType": "string",
              "name": "description",
              "type": "string"
            },
            {
              "internalType": "string",
              "name": "email",
              "type": "string"
            }
          ],
          "internalType": "struct Verification.Record",
          "name": "record",
          "type": "tuple"
        }
      ],
      "stateMutability": "view",
      "type": "function"
    },
    {
      "inputs": [
        {
          "internalType": "address",
          "name": "_add",
          "type": "address"
        }
      ],
      "name": "getExporterInfo",
      "outputs": [
        {
          "internalType": "string",
          "name": "",
          "type": "string"
        }
      ],
      "stateMutability": "view",
      "type": "function"
    },
    {
      "inputs": [],
      "name": "owner",
      "outputs": [
        {
          "internalType": "address",
          "name": "",
          "type": "address"
        }
      ],
      "stateMutability": "view",
      "type": "function"
    },
    {
      "inputs": [
        {
          "internalType": "bytes32",
          "name": "_hash",
          "type": "bytes32"
        }
      ],
      "name": "verifyDocHash",
      "outputs": [
        {
          "components": [
            {
              "internalType": "uint256",
              "name": "blockNumber",
              "type": "uint256"
            },
            {
              "internalType": "uint256",
              "name": "minetime",
              "type": "uint256"
            },
            {
              "internalType": "string",
              "name": "info",
              "type": "string"
            },
            {
              "internalType": "string",
              "name": "ipfs_hash",
              "type": "string"
            },
            {
              "internalType": "string",
              "name": "rollno",
              "type": "string"
            },
            {
              "internalType": "string",
              "name": "name",
              "type": "string"
            },
            {
              "internalType": "string",
              "name": "description",
              "type": "string"
            },
            {
              "internalType": "string",
              "name": "email",
              "type": "string"
            }
          ],
          "internalType": "struct Verification.Record",
          "name": "",
          "type": "tuple"
        }
      ],
      "stateMutability": "view",
      "type": "function"
    }
  ],
  "bytecode": "0x608060405260008060006101000a81548161ffff021916908361ffff16021790555060008060026101000a81548161ffff021916908361ffff160217905550348015604957600080fd5b5033600060046101000a81548173ffffffffffffffffffffffffffffffffffffffff021916908373ffffffffffffffffffffffffffffffffffffffff160217905550612d148061009a6000396000f3fe608060405234801561001057600080fd5b50600436106100b45760003560e01c80637b1e0164116100715780637b1e01641461018d5780638da5cb5b146101be578063a6f9dae1146101dc578063aef907ba146101f8578063cf3457bf1461022a578063fad9dc1a14610246576100b4565b806305c8dc19146100b957806324ac89cb146100e957806343f6f5481461010557806363f0bfce146101235780636b8b25421461013f5780636ed73e481461016f575b600080fd5b6100d360048036038101906100ce9190611ce5565b610262565b6040516100e09190611da2565b60405180910390f35b61010360048036038101906100fe9190611ce5565b610336565b005b61010d610652565b60405161011a9190611de1565b60405180910390f35b61013d60048036038101906101389190611e32565b610666565b005b61015960048036038101906101549190611e32565b6109a4565b6040516101669190611f95565b60405180910390f35b610177610d52565b6040516101849190611de1565b60405180910390f35b6101a760048036038101906101a2919061201c565b610d64565b6040516101b59291906120ac565b60405180910390f35b6101c66111ab565b6040516101d391906120eb565b60405180910390f35b6101f660048036038101906101f19190611ce5565b6111d1565b005b610212600480360381019061020d9190611ce5565b611316565b60405161022193929190612115565b60405180910390f35b610244600480360381019061023f9190612153565b6113c8565b005b610260600480360381019061025b91906121d8565b611663565b005b6060600260008373ffffffffffffffffffffffffffffffffffffffff1673ffffffffffffffffffffffffffffffffffffffff16815260200190815260200160002060020180546102b190612263565b80601f01602080910402602001604051908101604052809291908181526020018280546102dd90612263565b801561032a5780601f106102ff5761010080835404028352916020019161032a565b820191906000526020600020905b81548152906001019060200180831161030d57829003601f168201915b50505050509050919050565b600060049054906101000a900473ffffffffffffffffffffffffffffffffffffffff1673ffffffffffffffffffffffffffffffffffffffff163373ffffffffffffffffffffffffffffffffffffffff16146103c6576040517f08c379a00000000000000000000000000000000000000000000000000000000081526004016103bd906122e0565b60405180910390fd5b6000600260008373ffffffffffffffffffffffffffffffffffffffff1673ffffffffffffffffffffffffffffffffffffffff168152602001908152602001600020600001540361044b576040517f08c379a00000000000000000000000000000000000000000000000000000000081526004016104429061234c565b60405180910390fd5b6000600260008373ffffffffffffffffffffffffffffffffffffffff1673ffffffffffffffffffffffffffffffffffffffff1681526020019081526020016000206001015490506000600260008473ffffffffffffffffffffffffffffffffffffffff1673ffffffffffffffffffffffffffffffffffffffff16815260200190815260200160002060020180546104e190612263565b80601f016020809104026020016040519081016040528092919081815260200182805461050d90612263565b801561055a5780601f1061052f5761010080835404028352916020019161055a565b820191906000526020600020905b81548152906001019060200180831161053d57829003601f168201915b50505050509050600260008473ffffffffffffffffffffffffffffffffffffffff1673ffffffffffffffffffffffffffffffffffffffff16815260200190815260200160002060008082016000905560018201600090556002820160006105c19190611bdb565b505060008081819054906101000a900461ffff16809291906105e29061239b565b91906101000a81548161ffff021916908361ffff160217905550508273ffffffffffffffffffffffffffffffffffffffff167fd5cf6d7603ecd0072eac5a23847e5eb7afef24010b826876e67efe20bf45785d83836040516106459291906123c4565b60405180910390a2505050565b600060029054906101000a900461ffff1681565b806001600082815260200190815260200160002060020160405160200161068d9190612497565b60405160208183030381529060405280519060200120600260003373ffffffffffffffffffffffffffffffffffffffff1673ffffffffffffffffffffffffffffffffffffffff1681526020019081526020016000206002016040516020016106f59190612497565b604051602081830303815290604052805190602001201461074b576040517f08c379a000000000000000000000000000000000000000000000000000000000815260040161074290612520565b60405180910390fd5b6000600260003373ffffffffffffffffffffffffffffffffffffffff1673ffffffffffffffffffffffffffffffffffffffff16815260200190815260200160002060000154036107d0576040517f08c379a00000000000000000000000000000000000000000000000000000000081526004016107c7906125b2565b60405180910390fd5b6000600160008481526020019081526020016000206001015403610829576040517f08c379a00000000000000000000000000000000000000000000000000000000081526004016108209061261e565b60405180910390fd5b60006001600084815260200190815260200160002090506000816007018260040160405160200161085b92919061263e565b6040516020818303038152906040528051906020012090503373ffffffffffffffffffffffffffffffffffffffff16847f1a2ecbe6c06fbcb9df90ba9a70b701895d61684005801f2989e10ccf65f00c8a84600101546040516108be9190612662565b60405180910390a36001600085815260200190815260200160002060008082016000905560018201600090556002820160006108fa9190611bdb565b60038201600061090a9190611bdb565b60048201600061091a9190611bdb565b60058201600061092a9190611bdb565b60068201600061093a9190611bdb565b60078201600061094a9190611bdb565b505060036000828152602001908152602001600020600090556000600281819054906101000a900461ffff16809291906109839061239b565b91906101000a81548161ffff021916908361ffff1602179055505050505050565b6109ac611c1b565b600160008381526020019081526020016000206040518061010001604052908160008201548152602001600182015481526020016002820180546109ef90612263565b80601f0160208091040260200160405190810160405280929190818152602001828054610a1b90612263565b8015610a685780601f10610a3d57610100808354040283529160200191610a68565b820191906000526020600020905b815481529060010190602001808311610a4b57829003601f168201915b50505050508152602001600382018054610a8190612263565b80601f0160208091040260200160405190810160405280929190818152602001828054610aad90612263565b8015610afa5780601f10610acf57610100808354040283529160200191610afa565b820191906000526020600020905b815481529060010190602001808311610add57829003601f168201915b50505050508152602001600482018054610b1390612263565b80601f0160208091040260200160405190810160405280929190818152602001828054610b3f90612263565b8015610b8c5780601f10610b6157610100808354040283529160200191610b8c565b820191906000526020600020905b815481529060010190602001808311610b6f57829003601f168201915b50505050508152602001600582018054610ba590612263565b80601f0160208091040260200160405190810160405280929190818152602001828054610bd190612263565b8015610c1e5780601f10610bf357610100808354040283529160200191610c1e565b820191906000526020600020905b815481529060010190602001808311610c0157829003601f168201915b50505050508152602001600682018054610c3790612263565b80601f0160208091040260200160405190810160405280929190818152602001828054610c6390612263565b8015610cb05780601f10610c8557610100808354040283529160200191610cb0565b820191906000526020600020905b815481529060010190602001808311610c9357829003601f168201915b50505050508152602001600782018054610cc990612263565b80601f0160208091040260200160405190810160405280929190818152602001828054610cf590612263565b8015610d425780601f10610d1757610100808354040283529160200191610d42565b820191906000526020600020905b815481529060010190602001808311610d2557829003601f168201915b5050505050815250509050919050565b60008054906101000a900461ffff1681565b6000610d6e611c1b565b600086868686604051602001610d8794939291906126b1565b6040516020818303038152906040528051906020012090506000600360008381526020019081526020016000205490506000801b8103610dfc576040517f08c379a0000000000000000000000000000000000000000000000000000000008152600401610df39061274b565b60405180910390fd5b60016000828152602001908152602001600020604051806101000160405290816000820154815260200160018201548152602001600282018054610e3f90612263565b80601f0160208091040260200160405190810160405280929190818152602001828054610e6b90612263565b8015610eb85780601f10610e8d57610100808354040283529160200191610eb8565b820191906000526020600020905b815481529060010190602001808311610e9b57829003601f168201915b50505050508152602001600382018054610ed190612263565b80601f0160208091040260200160405190810160405280929190818152602001828054610efd90612263565b8015610f4a5780601f10610f1f57610100808354040283529160200191610f4a565b820191906000526020600020905b815481529060010190602001808311610f2d57829003601f168201915b50505050508152602001600482018054610f6390612263565b80601f0160208091040260200160405190810160405280929190818152602001828054610f8f90612263565b8015610fdc5780601f10610fb157610100808354040283529160200191610fdc565b820191906000526020600020905b815481529060010190602001808311610fbf57829003601f168201915b50505050508152602001600582018054610ff590612263565b80601f016020809104026020016040519081016040528092919081815260200182805461102190612263565b801561106e5780601f106110435761010080835404028352916020019161106e565b820191906000526020600020905b81548152906001019060200180831161105157829003601f168201915b5050505050815260200160068201805461108790612263565b80601f01602080910402602001604051908101604052809291908181526020018280546110b390612263565b80156111005780601f106110d557610100808354040283529160200191611100565b820191906000526020600020905b8154815290600101906020018083116110e357829003601f168201915b5050505050815260200160078201805461111990612263565b80601f016020809104026020016040519081016040528092919081815260200182805461114590612263565b80156111925780601f1061116757610100808354040283529160200191611192565b820191906000526020600020905b81548152906001019060200180831161117557829003601f168201915b5050505050815250509250809350505094509492505050565b600060049054906101000a900473ffffffffffffffffffffffffffffffffffffffff1681565b600060049054906101000a900473ffffffffffffffffffffffffffffffffffffffff1673ffffffffffffffffffffffffffffffffffffffff163373ffffffffffffffffffffffffffffffffffffffff1614611261576040517f08c379a0000000000000000000000000000000000000000000000000000000008152600401611258906122e0565b60405180910390fd5b80600073ffffffffffffffffffffffffffffffffffffffff168173ffffffffffffffffffffffffffffffffffffffff16036112d1576040517f08c379a00000000000000000000000000000000000000000000000000000000081526004016112c8906127b7565b60405180910390fd5b81600060046101000a81548173ffffffffffffffffffffffffffffffffffffffff021916908373ffffffffffffffffffffffffffffffffffffffff1602179055505050565b600260205280600052604060002060009150905080600001549080600101549080600201805461134590612263565b80601f016020809104026020016040519081016040528092919081815260200182805461137190612263565b80156113be5780601f10611393576101008083540402835291602001916113be565b820191906000526020600020905b8154815290600101906020018083116113a157829003601f168201915b5050505050905083565b600060049054906101000a900473ffffffffffffffffffffffffffffffffffffffff1673ffffffffffffffffffffffffffffffffffffffff163373ffffffffffffffffffffffffffffffffffffffff1614611458576040517f08c379a000000000000000000000000000000000000000000000000000000000815260040161144f906122e0565b60405180910390fd5b6000600260008573ffffffffffffffffffffffffffffffffffffffff1673ffffffffffffffffffffffffffffffffffffffff16815260200190815260200160002060000154146114dd576040517f08c379a00000000000000000000000000000000000000000000000000000000081526004016114d490612823565b60405180910390fd5b6000604051806060016040528043815260200142815260200184848080601f016020809104026020016040519081016040528093929190818152602001838380828437600081840152601f19601f82011690508083019250505050505050815250905080600260008673ffffffffffffffffffffffffffffffffffffffff1673ffffffffffffffffffffffffffffffffffffffff168152602001908152602001600020600082015181600001556020820151816001015560408201518160020190816115a99190612a09565b5090505060008081819054906101000a900461ffff16809291906115cc90612adb565b91906101000a81548161ffff021916908361ffff160217905550508373ffffffffffffffffffffffffffffffffffffffff167f52037f66a0e18d9c31f61f6a9d3a65abb23cb7ed20bdbc98097fb2e062bc1f56848442600060049054906101000a900473ffffffffffffffffffffffffffffffffffffffff166040516116559493929190612b32565b60405180910390a250505050565b6000600260003373ffffffffffffffffffffffffffffffffffffffff1673ffffffffffffffffffffffffffffffffffffffff16815260200190815260200160002060000154036116e8576040517f08c379a00000000000000000000000000000000000000000000000000000000081526004016116df906125b2565b60405180910390fd5b6000600160008481526020019081526020016000206000015414611741576040517f08c379a000000000000000000000000000000000000000000000000000000000815260040161173890612bbe565b60405180910390fd5b604051806101000160405280438152602001428152602001600260003373ffffffffffffffffffffffffffffffffffffffff1673ffffffffffffffffffffffffffffffffffffffff16815260200190815260200160002060020180546117a690612263565b80601f01602080910402602001604051908101604052809291908181526020018280546117d290612263565b801561181f5780601f106117f45761010080835404028352916020019161181f565b820191906000526020600020905b81548152906001019060200180831161180257829003601f168201915b505050505081526020018280606001906118399190612bed565b8080601f016020809104026020016040519081016040528093929190818152602001838380828437600081840152601f19601f8201169050808301925050505050505081526020018280608001906118919190612bed565b8080601f016020809104026020016040519081016040528093929190818152602001838380828437600081840152601f19601f820116905080830192505050505050508152602001828060a001906118e99190612bed565b8080601f016020809104026020016040519081016040528093929190818152602001838380828437600081840152601f19601f820116905080830192505050505050508152602001828060c001906119419190612bed565b8080601f016020809104026020016040519081016040528093929190818152602001838380828437600081840152601f19601f820116905080830192505050505050508152602001828060e001906119999190612bed565b8080601f016020809104026020016040519081016040528093929190818152602001838380828437600081840152601f19601f820116905080830192505050505050508152506001600084815260200190815260200160002060008201518160000155602082015181600101556040820151816002019081611a1b9190612a09565b506060820151816003019081611a319190612a09565b506080820151816004019081611a479190612a09565b5060a0820151816005019081611a5d9190612a09565b5060c0820151816006019081611a739190612a09565b5060e0820151816007019081611a899190612a09565b509050506000600281819054906101000a900461ffff1680929190611aad90612adb565b91906101000a81548161ffff021916908361ffff160217905550506000818060e00190611ada9190612bed565b838060800190611aea9190612bed565b604051602001611afd94939291906126b1565b604051602081830303815290604052805190602001209050826003600083815260200190815260200160002081905550823373ffffffffffffffffffffffffffffffffffffffff167fc8908d5aca0a9736df02f34dd3cc699c09c226a9214ca2a052f560f954a49254848060800190611b769190612bed565b42878060600190611b879190612bed565b898060a00190611b979190612bed565b8b8060c00190611ba79190612bed565b8d8060e00190611bb79190612bed565b604051611bce9b9a99989796959493929190612c50565b60405180910390a3505050565b508054611be790612263565b6000825580601f10611bf95750611c18565b601f016020900490600052602060002090810190611c179190611c60565b5b50565b60405180610100016040528060008152602001600081526020016060815260200160608152602001606081526020016060815260200160608152602001606081525090565b5b80821115611c79576000816000905550600101611c61565b5090565b600080fd5b600080fd5b600073ffffffffffffffffffffffffffffffffffffffff82169050919050565b6000611cb282611c87565b9050919050565b611cc281611ca7565b8114611ccd57600080fd5b50565b600081359050611cdf81611cb9565b92915050565b600060208284031215611cfb57611cfa611c7d565b5b6000611d0984828501611cd0565b91505092915050565b600081519050919050565b600082825260208201905092915050565b60005b83811015611d4c578082015181840152602081019050611d31565b60008484015250505050565b6000601f19601f8301169050919050565b6000611d7482611d12565b611d7e8185611d1d565b9350611d8e818560208601611d2e565b611d9781611d58565b840191505092915050565b60006020820190508181036000830152611dbc8184611d69565b905092915050565b600061ffff82169050919050565b611ddb81611dc4565b82525050565b6000602082019050611df66000830184611dd2565b92915050565b6000819050919050565b611e0f81611dfc565b8114611e1a57600080fd5b50565b600081359050611e2c81611e06565b92915050565b600060208284031215611e4857611e47611c7d565b5b6000611e5684828501611e1d565b91505092915050565b6000819050919050565b611e7281611e5f565b82525050565b600082825260208201905092915050565b6000611e9482611d12565b611e9e8185611e78565b9350611eae818560208601611d2e565b611eb781611d58565b840191505092915050565b600061010083016000830151611edb6000860182611e69565b506020830151611eee6020860182611e69565b5060408301518482036040860152611f068282611e89565b91505060608301518482036060860152611f208282611e89565b91505060808301518482036080860152611f3a8282611e89565b91505060a083015184820360a0860152611f548282611e89565b91505060c083015184820360c0860152611f6e8282611e89565b91505060e083015184820360e0860152611f888282611e89565b9150508091505092915050565b60006020820190508181036000830152611faf8184611ec2565b905092915050565b600080fd5b600080fd5b600080fd5b60008083601f840112611fdc57611fdb611fb7565b5b8235905067ffffffffffffffff811115611ff957611ff8611fbc565b5b60208301915083600182028301111561201557612014611fc1565b5b9250929050565b6000806000806040858703121561203657612035611c7d565b5b600085013567ffffffffffffffff81111561205457612053611c82565b5b61206087828801611fc6565b9450945050602085013567ffffffffffffffff81111561208357612082611c82565b5b61208f87828801611fc6565b925092505092959194509250565b6120a681611dfc565b82525050565b60006040820190506120c1600083018561209d565b81810360208301526120d38184611ec2565b90509392505050565b6120e581611ca7565b82525050565b600060208201905061210060008301846120dc565b92915050565b61210f81611e5f565b82525050565b600060608201905061212a6000830186612106565b6121376020830185612106565b81810360408301526121498184611d69565b9050949350505050565b60008060006040848603121561216c5761216b611c7d565b5b600061217a86828701611cd0565b935050602084013567ffffffffffffffff81111561219b5761219a611c82565b5b6121a786828701611fc6565b92509250509250925092565b600080fd5b600061010082840312156121cf576121ce6121b3565b5b81905092915050565b600080604083850312156121ef576121ee611c7d565b5b60006121fd85828601611e1d565b925050602083013567ffffffffffffffff81111561221e5761221d611c82565b5b61222a858286016121b8565b9150509250929050565b7f4e487b7100000000000000000000000000000000000000000000000000000000600052602260045260246000fd5b6000600282049050600182168061227b57607f821691505b60208210810361228e5761228d612234565b5b50919050565b7f43616c6c6572206973206e6f7420746865206f776e6572000000000000000000600082015250565b60006122ca601783611d1d565b91506122d582612294565b602082019050919050565b600060208201905081810360008301526122f9816122bd565b9050919050565b7f4578706f7274657220646f6573206e6f74206578697374000000000000000000600082015250565b6000612336601783611d1d565b915061234182612300565b602082019050919050565b6000602082019050818103600083015261236581612329565b9050919050565b7f4e487b7100000000000000000000000000000000000000000000000000000000600052601160045260246000fd5b60006123a682611dc4565b9150600082036123b9576123b861236c565b5b600182039050919050565b60006040820190506123d96000830185612106565b81810360208301526123eb8184611d69565b90509392505050565b600081905092915050565b60008190508160005260206000209050919050565b6000815461242181612263565b61242b81866123f4565b94506001821660008114612446576001811461245b5761248e565b60ff198316865281151582028601935061248e565b612464856123ff565b60005b8381101561248657815481890152600182019150602081019050612467565b838801955050505b50505092915050565b60006124a38284612414565b915081905092915050565b7f43616c6c6572206973206e6f7420617574686f726973656420746f206564697460008201527f207468697320646f63756d656e74000000000000000000000000000000000000602082015250565b600061250a602e83611d1d565b9150612515826124ae565b604082019050919050565b60006020820190508181036000830152612539816124fd565b9050919050565b7f43616c6c6572206e6f7420617574686f726973656420746f2061646420646f6360008201527f756d656e74730000000000000000000000000000000000000000000000000000602082015250565b600061259c602683611d1d565b91506125a782612540565b604082019050919050565b600060208201905081810360008301526125cb8161258f565b9050919050565b7f4861736820646f6573206e6f7420657869737400000000000000000000000000600082015250565b6000612608601383611d1d565b9150612613826125d2565b602082019050919050565b60006020820190508181036000830152612637816125fb565b9050919050565b600061264a8285612414565b91506126568284612414565b91508190509392505050565b60006020820190506126776000830184612106565b92915050565b82818337600083830152505050565b600061269883856123f4565b93506126a583858461267d565b82840190509392505050565b60006126be82868861268c565b91506126cb82848661268c565b915081905095945050505050565b7f446f63756d656e74206e6f7420666f756e6420666f722074686520676976656e60008201527f20656d61696c20616e6420726f6c6c206e756d62657200000000000000000000602082015250565b6000612735603683611d1d565b9150612740826126d9565b604082019050919050565b6000602082019050818103600083015261276481612728565b9050919050565b7f496e76616c696420616464726573730000000000000000000000000000000000600082015250565b60006127a1600f83611d1d565b91506127ac8261276b565b602082019050919050565b600060208201905081810360008301526127d081612794565b9050919050565b7f4578706f7274657220616c726561647920657869737473000000000000000000600082015250565b600061280d601783611d1d565b9150612818826127d7565b602082019050919050565b6000602082019050818103600083015261283c81612800565b9050919050565b7f4e487b7100000000000000000000000000000000000000000000000000000000600052604160045260246000fd5b60006020601f8301049050919050565b600082821b905092915050565b6000600883026128bf7fffffffffffffffffffffffffffffffffffffffffffffffffffffffffffffffff82612882565b6128c98683612882565b95508019841693508086168417925050509392505050565b6000819050919050565b60006129066129016128fc84611e5f565b6128e1565b611e5f565b9050919050565b6000819050919050565b612920836128eb565b61293461292c8261290d565b84845461288f565b825550505050565b600090565b61294961293c565b612954818484612917565b505050565b5b818110156129785761296d600082612941565b60018101905061295a565b5050565b601f8211156129bd5761298e816123ff565b61299784612872565b810160208510156129a6578190505b6129ba6129b285612872565b830182612959565b50505b505050565b600082821c905092915050565b60006129e0600019846008026129c2565b1980831691505092915050565b60006129f983836129cf565b9150826002028217905092915050565b612a1282611d12565b67ffffffffffffffff811115612a2b57612a2a612843565b5b612a358254612263565b612a4082828561297c565b600060209050601f831160018114612a735760008415612a61578287015190505b612a6b85826129ed565b865550612ad3565b601f198416612a81866123ff565b60005b82811015612aa957848901518255600182019150602085019450602081019050612a84565b86831015612ac65784890151612ac2601f8916826129cf565b8355505b6001600288020188555050505b505050505050565b6000612ae682611dc4565b915061ffff8203612afa57612af961236c565b5b600182019050919050565b6000612b118385611d1d565b9350612b1e83858461267d565b612b2783611d58565b840190509392505050565b60006060820190508181036000830152612b4d818688612b05565b9050612b5c6020830185612106565b612b6960408301846120dc565b95945050505050565b7f4861736820616c72656164792065786973747300000000000000000000000000600082015250565b6000612ba8601383611d1d565b9150612bb382612b72565b602082019050919050565b60006020820190508181036000830152612bd781612b9b565b9050919050565b600080fd5b600080fd5b600080fd5b60008083356001602003843603038112612c0a57612c09612bde565b5b80840192508235915067ffffffffffffffff821115612c2c57612c2b612be3565b5b602083019250600182023603831315612c4857612c47612be8565b5b509250929050565b600060c0820190508181036000830152612c6b818d8f612b05565b9050612c7a602083018c612106565b8181036040830152612c8d818a8c612b05565b90508181036060830152612ca281888a612b05565b90508181036080830152612cb7818688612b05565b905081810360a0830152612ccc818486612b05565b90509c9b50505050505050505050505056fea264697066735822122027261833f4c7f3f8697cc09989328cd7a87c075ff97ab811f6bfe82e1633793e64736f6c634300081b0033",
  "linkReferences": {},
  "deployedLinkReferences": {}
}